{
  "_format": "hh-sol-artifact-1",
  "contractName": "DeFiLending",
  "sourceName": "contracts/Defi.sol",
  "abi": [
    {
      "inputs": [],
      "name": "baseRate",
      "outputs": [
        {
          "internalType": "uint256",
          "name": "",
          "type": "uint256"
        }
      ],
      "stateMutability": "view",
      "type": "function"
    },
    {
      "inputs": [
        {
          "internalType": "uint256",
          "name": "amount",
          "type": "uint256"
        }
      ],
      "name": "borrow",
      "outputs": [],
      "stateMutability": "nonpayable",
      "type": "function"
    },
    {
      "inputs": [
        {
          "internalType": "address",
          "name": "",
          "type": "address"
        }
      ],
      "name": "borrows",
      "outputs": [
        {
          "internalType": "uint256",
          "name": "",
          "type": "uint256"
        }
      ],
      "stateMutability": "view",
      "type": "function"
    },
    {
      "inputs": [],
      "name": "deposit",
      "outputs": [],
      "stateMutability": "payable",
      "type": "function"
    },
    {
      "inputs": [
        {
          "internalType": "address",
          "name": "",
          "type": "address"
        }
      ],
      "name": "deposits",
      "outputs": [
        {
          "internalType": "uint256",
          "name": "",
          "type": "uint256"
        }
      ],
      "stateMutability": "view",
      "type": "function"
    },
    {
      "inputs": [],
      "name": "getInterestRate",
      "outputs": [
        {
          "internalType": "uint256",
          "name": "",
          "type": "uint256"
        }
      ],
      "stateMutability": "view",
      "type": "function"
    },
    {
      "inputs": [],
      "name": "multiplier",
      "outputs": [
        {
          "internalType": "uint256",
          "name": "",
          "type": "uint256"
        }
      ],
      "stateMutability": "view",
      "type": "function"
    },
    {
      "inputs": [],
      "name": "repay",
      "outputs": [],
      "stateMutability": "payable",
      "type": "function"
    },
    {
      "inputs": [],
      "name": "totalBorrowed",
      "outputs": [
        {
          "internalType": "uint256",
          "name": "",
          "type": "uint256"
        }
      ],
      "stateMutability": "view",
      "type": "function"
    },
    {
      "inputs": [],
      "name": "totalSupplied",
      "outputs": [
        {
          "internalType": "uint256",
          "name": "",
          "type": "uint256"
        }
      ],
      "stateMutability": "view",
      "type": "function"
    },
    {
      "inputs": [
        {
          "internalType": "uint256",
          "name": "amount",
          "type": "uint256"
        }
      ],
      "name": "withdraw",
      "outputs": [],
      "stateMutability": "nonpayable",
      "type": "function"
    }
  ],
  "bytecode": "0x60806040526002600455600a600555348015601957600080fd5b50610c69806100296000396000f3fe60806040526004361061009c5760003560e01c80635257b566116100645780635257b5661461015557806354a5706f14610180578063630fd0ac146101bd578063c5ebeaec146101e8578063d0e30db014610211578063fc7e286d1461021b5761009c565b80631b3ed722146100a15780631f68f20a146100cc5780632e1a7d4d146100f7578063402d8883146101205780634c19386c1461012a575b600080fd5b3480156100ad57600080fd5b506100b6610258565b6040516100c391906107c9565b60405180910390f35b3480156100d857600080fd5b506100e161025e565b6040516100ee91906107c9565b60405180910390f35b34801561010357600080fd5b5061011e60048036038101906101199190610815565b610264565b005b61012861039d565b005b34801561013657600080fd5b5061013f610512565b60405161014c91906107c9565b60405180910390f35b34801561016157600080fd5b5061016a610518565b60405161017791906107c9565b60405180910390f35b34801561018c57600080fd5b506101a760048036038101906101a291906108a0565b61057b565b6040516101b491906107c9565b60405180910390f35b3480156101c957600080fd5b506101d2610593565b6040516101df91906107c9565b60405180910390f35b3480156101f457600080fd5b5061020f600480360381019061020a9190610815565b610599565b005b6102196106e5565b005b34801561022757600080fd5b50610242600480360381019061023d91906108a0565b610798565b60405161024f91906107c9565b60405180910390f35b60055481565b60045481565b806000803373ffffffffffffffffffffffffffffffffffffffff1673ffffffffffffffffffffffffffffffffffffffff1681526020019081526020016000205410156102e5576040517f08c379a00000000000000000000000000000000000000000000000000000000081526004016102dc9061092a565b60405180910390fd5b806000803373ffffffffffffffffffffffffffffffffffffffff1673ffffffffffffffffffffffffffffffffffffffff16815260200190815260200160002060008282546103339190610979565b92505081905550806002600082825461034c9190610979565b925050819055503373ffffffffffffffffffffffffffffffffffffffff166108fc829081150290604051600060405180830381858888f19350505050158015610399573d6000803e3d6000fd5b5050565b6000600160003373ffffffffffffffffffffffffffffffffffffffff1673ffffffffffffffffffffffffffffffffffffffff168152602001908152602001600020541161041f576040517f08c379a0000000000000000000000000000000000000000000000000000000008152600401610416906109f9565b60405180910390fd5b600160003373ffffffffffffffffffffffffffffffffffffffff1673ffffffffffffffffffffffffffffffffffffffff168152602001908152602001600020543411156104a1576040517f08c379a000000000000000000000000000000000000000000000000000000000815260040161049890610a65565b60405180910390fd5b34600160003373ffffffffffffffffffffffffffffffffffffffff1673ffffffffffffffffffffffffffffffffffffffff16815260200190815260200160002060008282546104f09190610979565b9250508190555034600360008282546105099190610979565b92505081905550565b60035481565b6000806002540361052d576004549050610578565b600060025460646003546105419190610a85565b61054b9190610af6565b905060646005548261055d9190610a85565b6105679190610af6565b6004546105749190610b27565b9150505b90565b60016020528060005260406000206000915090505481565b60025481565b600060026000803373ffffffffffffffffffffffffffffffffffffffff1673ffffffffffffffffffffffffffffffffffffffff168152602001908152602001600020546105e69190610af6565b90508082111561062b576040517f08c379a000000000000000000000000000000000000000000000000000000000815260040161062290610ba7565b60405180910390fd5b81600160003373ffffffffffffffffffffffffffffffffffffffff1673ffffffffffffffffffffffffffffffffffffffff168152602001908152602001600020600082825461067a9190610b27565b9250508190555081600360008282546106939190610b27565b925050819055503373ffffffffffffffffffffffffffffffffffffffff166108fc839081150290604051600060405180830381858888f193505050501580156106e0573d6000803e3d6000fd5b505050565b60003411610728576040517f08c379a000000000000000000000000000000000000000000000000000000000815260040161071f90610c13565b60405180910390fd5b346000803373ffffffffffffffffffffffffffffffffffffffff1673ffffffffffffffffffffffffffffffffffffffff16815260200190815260200160002060008282546107769190610b27565b92505081905550346002600082825461078f9190610b27565b92505081905550565b60006020528060005260406000206000915090505481565b6000819050919050565b6107c3816107b0565b82525050565b60006020820190506107de60008301846107ba565b92915050565b600080fd5b6107f2816107b0565b81146107fd57600080fd5b50565b60008135905061080f816107e9565b92915050565b60006020828403121561082b5761082a6107e4565b5b600061083984828501610800565b91505092915050565b600073ffffffffffffffffffffffffffffffffffffffff82169050919050565b600061086d82610842565b9050919050565b61087d81610862565b811461088857600080fd5b50565b60008135905061089a81610874565b92915050565b6000602082840312156108b6576108b56107e4565b5b60006108c48482850161088b565b91505092915050565b600082825260208201905092915050565b7f496e73756666696369656e742062616c616e6365000000000000000000000000600082015250565b60006109146014836108cd565b915061091f826108de565b602082019050919050565b6000602082019050818103600083015261094381610907565b9050919050565b7f4e487b7100000000000000000000000000000000000000000000000000000000600052601160045260246000fd5b6000610984826107b0565b915061098f836107b0565b92508282039050818111156109a7576109a661094a565b5b92915050565b7f4e6f20616374697665206c6f616e000000000000000000000000000000000000600082015250565b60006109e3600e836108cd565b91506109ee826109ad565b602082019050919050565b60006020820190508181036000830152610a12816109d6565b9050919050565b7f4578636573732072657061796d656e7400000000000000000000000000000000600082015250565b6000610a4f6010836108cd565b9150610a5a82610a19565b602082019050919050565b60006020820190508181036000830152610a7e81610a42565b9050919050565b6000610a90826107b0565b9150610a9b836107b0565b9250828202610aa9816107b0565b91508282048414831517610ac057610abf61094a565b5b5092915050565b7f4e487b7100000000000000000000000000000000000000000000000000000000600052601260045260246000fd5b6000610b01826107b0565b9150610b0c836107b0565b925082610b1c57610b1b610ac7565b5b828204905092915050565b6000610b32826107b0565b9150610b3d836107b0565b9250828201905080821115610b5557610b5461094a565b5b92915050565b7f4578636565647320626f72726f77206c696d6974000000000000000000000000600082015250565b6000610b916014836108cd565b9150610b9c82610b5b565b602082019050919050565b60006020820190508181036000830152610bc081610b84565b9050919050565b7f416d6f756e74206d7573742062652067726561746572207468616e207a65726f600082015250565b6000610bfd6020836108cd565b9150610c0882610bc7565b602082019050919050565b60006020820190508181036000830152610c2c81610bf0565b905091905056fea2646970667358221220a879eafedc3a789121b68e90a0f26ca60d229615a1d61425c20958f859d38b9364736f6c634300081c0033",
  "linkReferences": {},
  "deployedLinkReferences": {}
}